{
  "_format": "hh-sol-artifact-1",
  "contractName": "GodwokenNFT",
  "sourceName": "contracts/BaseBrdige/GodwokenNFT.sol",
  "abi": [
    {
      "inputs": [],
      "stateMutability": "nonpayable",
      "type": "constructor"
    },
    {
      "anonymous": false,
      "inputs": [
        {
          "indexed": true,
          "internalType": "address",
          "name": "owner",
          "type": "address"
        },
        {
          "indexed": true,
          "internalType": "address",
          "name": "approved",
          "type": "address"
        },
        {
          "indexed": true,
          "internalType": "uint256",
          "name": "tokenId",
          "type": "uint256"
        }
      ],
      "name": "Approval",
      "type": "event"
    },
    {
      "anonymous": false,
      "inputs": [
        {
          "indexed": true,
          "internalType": "address",
          "name": "owner",
          "type": "address"
        },
        {
          "indexed": true,
          "internalType": "address",
          "name": "operator",
          "type": "address"
        },
        {
          "indexed": false,
          "internalType": "bool",
          "name": "approved",
          "type": "bool"
        }
      ],
      "name": "ApprovalForAll",
      "type": "event"
    },
    {
      "anonymous": false,
      "inputs": [
        {
          "indexed": true,
          "internalType": "bytes32",
          "name": "role",
          "type": "bytes32"
        },
        {
          "indexed": true,
          "internalType": "bytes32",
          "name": "previousAdminRole",
          "type": "bytes32"
        },
        {
          "indexed": true,
          "internalType": "bytes32",
          "name": "newAdminRole",
          "type": "bytes32"
        }
      ],
      "name": "RoleAdminChanged",
      "type": "event"
    },
    {
      "anonymous": false,
      "inputs": [
        {
          "indexed": true,
          "internalType": "bytes32",
          "name": "role",
          "type": "bytes32"
        },
        {
          "indexed": true,
          "internalType": "address",
          "name": "account",
          "type": "address"
        },
        {
          "indexed": true,
          "internalType": "address",
          "name": "sender",
          "type": "address"
        }
      ],
      "name": "RoleGranted",
      "type": "event"
    },
    {
      "anonymous": false,
      "inputs": [
        {
          "indexed": true,
          "internalType": "bytes32",
          "name": "role",
          "type": "bytes32"
        },
        {
          "indexed": true,
          "internalType": "address",
          "name": "account",
          "type": "address"
        },
        {
          "indexed": true,
          "internalType": "address",
          "name": "sender",
          "type": "address"
        }
      ],
      "name": "RoleRevoked",
      "type": "event"
    },
    {
      "anonymous": false,
      "inputs": [
        {
          "indexed": true,
          "internalType": "address",
          "name": "from",
          "type": "address"
        },
        {
          "indexed": true,
          "internalType": "address",
          "name": "to",
          "type": "address"
        },
        {
          "indexed": true,
          "internalType": "uint256",
          "name": "tokenId",
          "type": "uint256"
        }
      ],
      "name": "Transfer",
      "type": "event"
    },
    {
      "inputs": [],
      "name": "DEFAULT_ADMIN_ROLE",
      "outputs": [
        {
          "internalType": "bytes32",
          "name": "",
          "type": "bytes32"
        }
      ],
      "stateMutability": "view",
      "type": "function"
    },
    {
      "inputs": [],
      "name": "MINTER_ROLE",
      "outputs": [
        {
          "internalType": "bytes32",
          "name": "",
          "type": "bytes32"
        }
      ],
      "stateMutability": "view",
      "type": "function"
    },
    {
      "inputs": [
        {
          "internalType": "address",
          "name": "_minter",
          "type": "address"
        }
      ],
      "name": "addMinterRole",
      "outputs": [],
      "stateMutability": "nonpayable",
      "type": "function"
    },
    {
      "inputs": [
        {
          "internalType": "address",
          "name": "to",
          "type": "address"
        },
        {
          "internalType": "uint256",
          "name": "tokenId",
          "type": "uint256"
        }
      ],
      "name": "approve",
      "outputs": [],
      "stateMutability": "nonpayable",
      "type": "function"
    },
    {
      "inputs": [
        {
          "internalType": "address",
          "name": "owner",
          "type": "address"
        }
      ],
      "name": "balanceOf",
      "outputs": [
        {
          "internalType": "uint256",
          "name": "",
          "type": "uint256"
        }
      ],
      "stateMutability": "view",
      "type": "function"
    },
    {
      "inputs": [],
      "name": "baseExtension",
      "outputs": [
        {
          "internalType": "string",
          "name": "",
          "type": "string"
        }
      ],
      "stateMutability": "view",
      "type": "function"
    },
    {
      "inputs": [
        {
          "internalType": "uint256",
          "name": "tokenId",
          "type": "uint256"
        }
      ],
      "name": "burn",
      "outputs": [],
      "stateMutability": "nonpayable",
      "type": "function"
    },
    {
      "inputs": [
        {
          "internalType": "uint256",
          "name": "tokenId",
          "type": "uint256"
        }
      ],
      "name": "getApproved",
      "outputs": [
        {
          "internalType": "address",
          "name": "",
          "type": "address"
        }
      ],
      "stateMutability": "view",
      "type": "function"
    },
    {
      "inputs": [
        {
          "internalType": "bytes32",
          "name": "role",
          "type": "bytes32"
        }
      ],
      "name": "getRoleAdmin",
      "outputs": [
        {
          "internalType": "bytes32",
          "name": "",
          "type": "bytes32"
        }
      ],
      "stateMutability": "view",
      "type": "function"
    },
    {
      "inputs": [
        {
          "internalType": "bytes32",
          "name": "role",
          "type": "bytes32"
        },
        {
          "internalType": "address",
          "name": "account",
          "type": "address"
        }
      ],
      "name": "grantRole",
      "outputs": [],
      "stateMutability": "nonpayable",
      "type": "function"
    },
    {
      "inputs": [
        {
          "internalType": "bytes32",
          "name": "role",
          "type": "bytes32"
        },
        {
          "internalType": "address",
          "name": "account",
          "type": "address"
        }
      ],
      "name": "hasRole",
      "outputs": [
        {
          "internalType": "bool",
          "name": "",
          "type": "bool"
        }
      ],
      "stateMutability": "view",
      "type": "function"
    },
    {
      "inputs": [
        {
          "internalType": "address",
          "name": "owner",
          "type": "address"
        },
        {
          "internalType": "address",
          "name": "operator",
          "type": "address"
        }
      ],
      "name": "isApprovedForAll",
      "outputs": [
        {
          "internalType": "bool",
          "name": "",
          "type": "bool"
        }
      ],
      "stateMutability": "view",
      "type": "function"
    },
    {
      "inputs": [],
      "name": "name",
      "outputs": [
        {
          "internalType": "string",
          "name": "",
          "type": "string"
        }
      ],
      "stateMutability": "view",
      "type": "function"
    },
    {
      "inputs": [
        {
          "internalType": "uint256",
          "name": "tokenId",
          "type": "uint256"
        }
      ],
      "name": "ownerOf",
      "outputs": [
        {
          "internalType": "address",
          "name": "",
          "type": "address"
        }
      ],
      "stateMutability": "view",
      "type": "function"
    },
    {
      "inputs": [
        {
          "internalType": "bytes32",
          "name": "role",
          "type": "bytes32"
        },
        {
          "internalType": "address",
          "name": "account",
          "type": "address"
        }
      ],
      "name": "renounceRole",
      "outputs": [],
      "stateMutability": "nonpayable",
      "type": "function"
    },
    {
      "inputs": [
        {
          "internalType": "bytes32",
          "name": "role",
          "type": "bytes32"
        },
        {
          "internalType": "address",
          "name": "account",
          "type": "address"
        }
      ],
      "name": "revokeRole",
      "outputs": [],
      "stateMutability": "nonpayable",
      "type": "function"
    },
    {
      "inputs": [
        {
          "internalType": "address",
          "name": "to",
          "type": "address"
        }
      ],
      "name": "safeMint",
      "outputs": [],
      "stateMutability": "nonpayable",
      "type": "function"
    },
    {
      "inputs": [
        {
          "internalType": "address",
          "name": "from",
          "type": "address"
        },
        {
          "internalType": "address",
          "name": "to",
          "type": "address"
        },
        {
          "internalType": "uint256",
          "name": "tokenId",
          "type": "uint256"
        }
      ],
      "name": "safeTransferFrom",
      "outputs": [],
      "stateMutability": "nonpayable",
      "type": "function"
    },
    {
      "inputs": [
        {
          "internalType": "address",
          "name": "from",
          "type": "address"
        },
        {
          "internalType": "address",
          "name": "to",
          "type": "address"
        },
        {
          "internalType": "uint256",
          "name": "tokenId",
          "type": "uint256"
        },
        {
          "internalType": "bytes",
          "name": "_data",
          "type": "bytes"
        }
      ],
      "name": "safeTransferFrom",
      "outputs": [],
      "stateMutability": "nonpayable",
      "type": "function"
    },
    {
      "inputs": [
        {
          "internalType": "address",
          "name": "operator",
          "type": "address"
        },
        {
          "internalType": "bool",
          "name": "approved",
          "type": "bool"
        }
      ],
      "name": "setApprovalForAll",
      "outputs": [],
      "stateMutability": "nonpayable",
      "type": "function"
    },
    {
      "inputs": [
        {
          "internalType": "bytes4",
          "name": "interfaceId",
          "type": "bytes4"
        }
      ],
      "name": "supportsInterface",
      "outputs": [
        {
          "internalType": "bool",
          "name": "",
          "type": "bool"
        }
      ],
      "stateMutability": "view",
      "type": "function"
    },
    {
      "inputs": [],
      "name": "symbol",
      "outputs": [
        {
          "internalType": "string",
          "name": "",
          "type": "string"
        }
      ],
      "stateMutability": "view",
      "type": "function"
    },
    {
      "inputs": [
        {
          "internalType": "uint256",
          "name": "index",
          "type": "uint256"
        }
      ],
      "name": "tokenByIndex",
      "outputs": [
        {
          "internalType": "uint256",
          "name": "",
          "type": "uint256"
        }
      ],
      "stateMutability": "view",
      "type": "function"
    },
    {
      "inputs": [
        {
          "internalType": "address",
          "name": "owner",
          "type": "address"
        },
        {
          "internalType": "uint256",
          "name": "index",
          "type": "uint256"
        }
      ],
      "name": "tokenOfOwnerByIndex",
      "outputs": [
        {
          "internalType": "uint256",
          "name": "",
          "type": "uint256"
        }
      ],
      "stateMutability": "view",
      "type": "function"
    },
    {
      "inputs": [
        {
          "internalType": "uint256",
          "name": "tokenId",
          "type": "uint256"
        }
      ],
      "name": "tokenURI",
      "outputs": [
        {
          "internalType": "string",
          "name": "",
          "type": "string"
        }
      ],
      "stateMutability": "view",
      "type": "function"
    },
    {
      "inputs": [],
      "name": "totalSupply",
      "outputs": [
        {
          "internalType": "uint256",
          "name": "",
          "type": "uint256"
        }
      ],
      "stateMutability": "view",
      "type": "function"
    },
    {
      "inputs": [
        {
          "internalType": "address",
          "name": "from",
          "type": "address"
        },
        {
          "internalType": "address",
          "name": "to",
          "type": "address"
        },
        {
          "internalType": "uint256",
          "name": "tokenId",
          "type": "uint256"
        }
      ],
      "name": "transferFrom",
      "outputs": [],
      "stateMutability": "nonpayable",
      "type": "function"
    }
  ],
  "bytecode": "0x60c06040526005608081905264173539b7b760d91b60a09081526200002891600c919062000180565b503480156200003657600080fd5b50604080518082018252600781526626bcaa37b5b2b760c91b6020808301918252835180850190945260038452624d544b60e81b908401528151919291620000819160009162000180565b5080516200009790600190602084019062000180565b50620000a991506000905033620000db565b620000d57f9f2df0fed2c77648de5860a4cc508cd0818c85b8b8a1ab4ceeef8d981c8956a633620000db565b6200026d565b6000828152600a602090815260408083206001600160a01b038516845290915290205460ff166200017c576000828152600a602090815260408083206001600160a01b03851684529091529020805460ff191660011790556200013b3390565b6001600160a01b0316816001600160a01b0316837f2f8788117e7eff1d82e926ec794901d17c78024a50270940304540a733656f0d60405160405180910390a45b5050565b8280546200018e9062000226565b90600052602060002090601f016020900481019282620001b25760008555620001fd565b82601f10620001cd57805160ff1916838001178555620001fd565b82800160010185558215620001fd579182015b82811115620001fd578251825591602001919060010190620001e0565b506200020b9291506200020f565b5090565b5b808211156200020b576000815560010162000210565b6002810460018216806200023b57607f821691505b6020821081141562000251576200025162000257565b50919050565b634e487b7160e01b600052602260045260246000fd5b612704806200027d6000396000f3fe608060405234801561001057600080fd5b50600436106101b95760003560e01c80634f6ccce7116100f9578063adbf377611610097578063c87b56dd11610071578063c87b56dd146103ad578063d5391393146103c0578063d547741f146103e7578063e985e9c5146103fa57600080fd5b8063adbf37761461037f578063b88d4fde14610392578063c6682862146103a557600080fd5b806391d14854116100d357806391d148541461032357806395d89b411461035c578063a217fddf14610364578063a22cb4651461036c57600080fd5b80634f6ccce7146102ea5780636352211e146102fd57806370a082311461031057600080fd5b8063248a9ca31161016657806336568abe1161014057806336568abe1461029e57806340d097c3146102b157806342842e0e146102c457806342966c68146102d757600080fd5b8063248a9ca3146102555780632f2ff15d146102785780632f745c591461028b57600080fd5b8063095ea7b311610197578063095ea7b31461021c57806318160ddd1461023157806323b872dd1461024257600080fd5b806301ffc9a7146101be57806306fdde03146101e7578063081812fc146101fc575b600080fd5b6101d16101cc366004611b73565b610436565b6040516101de919061232f565b60405180910390f35b6101ef610447565b6040516101de919061234b565b61020f61020a366004611b36565b6104d9565b6040516101de91906122dd565b61022f61022a366004611b06565b610532565b005b6008545b6040516101de919061233d565b61022f610250366004611a10565b6105b8565b610235610263366004611b36565b6000908152600a602052604090206001015490565b61022f610286366004611b54565b6105e9565b610235610299366004611b06565b61060e565b61022f6102ac366004611b54565b610660565b61022f6102bf3660046119b8565b610696565b61022f6102d2366004611a10565b6106e5565b61022f6102e5366004611b36565b610700565b6102356102f8366004611b36565b61070c565b61020f61030b366004611b36565b610768565b61023561031e3660046119b8565b61079d565b6101d1610331366004611b54565b6000918252600a602090815260408084206001600160a01b0393909316845291905290205460ff1690565b6101ef6107e1565b610235600081565b61022f61037a366004611ad6565b6107f0565b61022f61038d3660046119b8565b6107fb565b61022f6103a0366004611a5d565b610830565b6101ef610868565b6101ef6103bb366004611b36565b6108f6565b6102357f9f2df0fed2c77648de5860a4cc508cd0818c85b8b8a1ab4ceeef8d981c8956a681565b61022f6103f5366004611b54565b61098c565b6101d16104083660046119d6565b6001600160a01b03918216600090815260056020908152604080832093909416825291909152205460ff1690565b6000610441826109b1565b92915050565b60606000805461045690612585565b80601f016020809104026020016040519081016040528092919081815260200182805461048290612585565b80156104cf5780601f106104a4576101008083540402835291602001916104cf565b820191906000526020600020905b8154815290600101906020018083116104b257829003601f168201915b5050505050905090565b6000818152600260205260408120546001600160a01b03166105165760405162461bcd60e51b815260040161050d9061241c565b60405180910390fd5b506000908152600460205260409020546001600160a01b031690565b600061053d82610768565b9050806001600160a01b0316836001600160a01b031614156105715760405162461bcd60e51b815260040161050d9061243c565b336001600160a01b038216148061058d575061058d8133610408565b6105a95760405162461bcd60e51b815260040161050d906123dc565b6105b383836109ef565b505050565b6105c23382610a6a565b6105de5760405162461bcd60e51b815260040161050d9061244c565b6105b3838383610b1c565b6000828152600a602052604090206001015461060481610c56565b6105b38383610c60565b60006106198361079d565b82106106375760405162461bcd60e51b815260040161050d9061236c565b506001600160a01b03919091166000908152600660209081526040808320938352929052205490565b6001600160a01b03811633146106885760405162461bcd60e51b815260040161050d9061246c565b6106928282610d02565b5050565b7f9f2df0fed2c77648de5860a4cc508cd0818c85b8b8a1ab4ceeef8d981c8956a66106c081610c56565b6106ce600b80546001019055565b60006106d9600b5490565b90506105b38382610d85565b6105b383838360405180602001604052806000815250610830565b61070981610d9f565b50565b600061071760085490565b82106107355760405162461bcd60e51b815260040161050d9061245c565b6008828154811061075657634e487b7160e01b600052603260045260246000fd5b90600052602060002001549050919050565b6000818152600260205260408120546001600160a01b0316806104415760405162461bcd60e51b815260040161050d906123fc565b60006001600160a01b0382166107c55760405162461bcd60e51b815260040161050d906123ec565b506001600160a01b031660009081526003602052604090205490565b60606001805461045690612585565b610692338383610da8565b600061080681610c56565b6106927f9f2df0fed2c77648de5860a4cc508cd0818c85b8b8a1ab4ceeef8d981c8956a683610c60565b61083a3383610a6a565b6108565760405162461bcd60e51b815260040161050d9061244c565b61086284848484610e4b565b50505050565b600c805461087590612585565b80601f01602080910402602001604051908101604052809291908181526020018280546108a190612585565b80156108ee5780601f106108c3576101008083540402835291602001916108ee565b820191906000526020600020905b8154815290600101906020018083116108d157829003601f168201915b505050505081565b6000818152600260205260409020546060906001600160a01b031661092d5760405162461bcd60e51b815260040161050d9061242c565b6000610937610e7e565b905060008151116109575760405180602001604052806000815250610985565b8061096184610e9e565b600c6040516020016109759392919061224c565b6040516020818303038152906040525b9392505050565b6000828152600a60205260409020600101546109a781610c56565b6105b38383610d02565b60006001600160e01b031982167f7965db0b000000000000000000000000000000000000000000000000000000001480610441575061044182610fec565b6000818152600460205260409020805473ffffffffffffffffffffffffffffffffffffffff19166001600160a01b0384169081179091558190610a3182610768565b6001600160a01b03167f8c5be1e5ebec7d5bd14f71427d1e84f3dd0314c0f7b2291e5b200ac8c7c3b92560405160405180910390a45050565b6000818152600260205260408120546001600160a01b0316610a9e5760405162461bcd60e51b815260040161050d906123cc565b6000610aa983610768565b9050806001600160a01b0316846001600160a01b03161480610af057506001600160a01b0380821660009081526005602090815260408083209388168352929052205460ff165b80610b145750836001600160a01b0316610b09846104d9565b6001600160a01b0316145b949350505050565b826001600160a01b0316610b2f82610768565b6001600160a01b031614610b555760405162461bcd60e51b815260040161050d9061238c565b6001600160a01b038216610b7b5760405162461bcd60e51b815260040161050d906123ac565b610b8683838361102a565b610b916000826109ef565b6001600160a01b0383166000908152600360205260408120805460019290610bba90849061250e565b90915550506001600160a01b0382166000908152600360205260408120805460019290610be89084906124c3565b9091555050600081815260026020526040808220805473ffffffffffffffffffffffffffffffffffffffff19166001600160a01b0386811691821790925591518493918716917fddf252ad1be2c89b69c2b068fc378daa952ba7f163c4a11628f55a4df523b3ef91a4505050565b6107098133611035565b6000828152600a602090815260408083206001600160a01b038516845290915290205460ff16610692576000828152600a602090815260408083206001600160a01b03851684529091529020805460ff19166001179055610cbe3390565b6001600160a01b0316816001600160a01b0316837f2f8788117e7eff1d82e926ec794901d17c78024a50270940304540a733656f0d60405160405180910390a45050565b6000828152600a602090815260408083206001600160a01b038516845290915290205460ff1615610692576000828152600a602090815260408083206001600160a01b0385168085529252808320805460ff1916905551339285917ff6391f5c32d9c69d2a47ea670b442974b53935d1edc7fd64eb21e047a839171b9190a45050565b6106928282604051806020016040528060008152506110b5565b610709816110e8565b816001600160a01b0316836001600160a01b03161415610dda5760405162461bcd60e51b815260040161050d906123bc565b6001600160a01b0383811660008181526005602090815260408083209487168084529490915290819020805460ff1916851515179055517f17307eab39ab6107e8899845ad3d59bd9653f200f220920489ca2b5937696c3190610e3e90859061232f565b60405180910390a3505050565b610e56848484610b1c565b610e628484848461119c565b6108625760405162461bcd60e51b815260040161050d9061237c565b606060405180606001604052806036815260200161269960369139905090565b606081610ede57505060408051808201909152600181527f3000000000000000000000000000000000000000000000000000000000000000602082015290565b8160005b8115610f085780610ef2816125df565b9150610f019050600a836124db565b9150610ee2565b60008167ffffffffffffffff811115610f3157634e487b7160e01b600052604160045260246000fd5b6040519080825280601f01601f191660200182016040528015610f5b576020820181803683370190505b5090505b8415610b1457610f7060018361250e565b9150610f7d600a866125fa565b610f889060306124c3565b60f81b818381518110610fab57634e487b7160e01b600052603260045260246000fd5b60200101907effffffffffffffffffffffffffffffffffffffffffffffffffffffffffffff1916908160001a905350610fe5600a866124db565b9450610f5f565b60006001600160e01b031982167f780e9d630000000000000000000000000000000000000000000000000000000014806104415750610441826112db565b6105b3838383611376565b6000828152600a602090815260408083206001600160a01b038516845290915290205460ff1661069257611073816001600160a01b0316601461142e565b61107e83602061142e565b60405160200161108f929190612279565b60408051601f198184030181529082905262461bcd60e51b825261050d9160040161234b565b6110bf838361166d565b6110cc600084848461119c565b6105b35760405162461bcd60e51b815260040161050d9061237c565b60006110f382610768565b90506111018160008461102a565b61110c6000836109ef565b6001600160a01b038116600090815260036020526040812080546001929061113590849061250e565b9091555050600082815260026020526040808220805473ffffffffffffffffffffffffffffffffffffffff19169055518391906001600160a01b038416907fddf252ad1be2c89b69c2b068fc378daa952ba7f163c4a11628f55a4df523b3ef908390a45050565b60006001600160a01b0384163b156112d0576040517f150b7a020000000000000000000000000000000000000000000000000000000081526001600160a01b0385169063150b7a02906111f99033908990889088906004016122eb565b602060405180830381600087803b15801561121357600080fd5b505af1925050508015611243575060408051601f3d908101601f1916820190925261124091810190611b91565b60015b61129d573d808015611271576040519150601f19603f3d011682016040523d82523d6000602084013e611276565b606091505b5080516112955760405162461bcd60e51b815260040161050d9061237c565b805181602001fd5b6001600160e01b0319167f150b7a0200000000000000000000000000000000000000000000000000000000149050610b14565b506001949350505050565b60006001600160e01b031982167f80ac58cd00000000000000000000000000000000000000000000000000000000148061133e57506001600160e01b031982167f5b5e139f00000000000000000000000000000000000000000000000000000000145b8061044157507f01ffc9a7000000000000000000000000000000000000000000000000000000006001600160e01b0319831614610441565b6001600160a01b0383166113d1576113cc81600880546000838152600960205260408120829055600182018355919091527ff3f7a9fe364faab93b216da50a3214154f22a0a2b415b23a84c8169e8b636ee30155565b6113f4565b816001600160a01b0316836001600160a01b0316146113f4576113f48382611768565b6001600160a01b03821661140b576105b381611805565b826001600160a01b0316826001600160a01b0316146105b3576105b382826118de565b6060600061143d8360026124ef565b6114489060026124c3565b67ffffffffffffffff81111561146e57634e487b7160e01b600052604160045260246000fd5b6040519080825280601f01601f191660200182016040528015611498576020820181803683370190505b5090507f3000000000000000000000000000000000000000000000000000000000000000816000815181106114dd57634e487b7160e01b600052603260045260246000fd5b60200101907effffffffffffffffffffffffffffffffffffffffffffffffffffffffffffff1916908160001a9053507f78000000000000000000000000000000000000000000000000000000000000008160018151811061154e57634e487b7160e01b600052603260045260246000fd5b60200101907effffffffffffffffffffffffffffffffffffffffffffffffffffffffffffff1916908160001a905350600061158a8460026124ef565b6115959060016124c3565b90505b600181111561164e577f303132333435363738396162636465660000000000000000000000000000000085600f16601081106115e457634e487b7160e01b600052603260045260246000fd5b1a60f81b82828151811061160857634e487b7160e01b600052603260045260246000fd5b60200101907effffffffffffffffffffffffffffffffffffffffffffffffffffffffffffff1916908160001a90535060049490941c936116478161256e565b9050611598565b5083156109855760405162461bcd60e51b815260040161050d9061235c565b6001600160a01b0382166116935760405162461bcd60e51b815260040161050d9061240c565b6000818152600260205260409020546001600160a01b0316156116c85760405162461bcd60e51b815260040161050d9061239c565b6116d46000838361102a565b6001600160a01b03821660009081526003602052604081208054600192906116fd9084906124c3565b9091555050600081815260026020526040808220805473ffffffffffffffffffffffffffffffffffffffff19166001600160a01b03861690811790915590518392907fddf252ad1be2c89b69c2b068fc378daa952ba7f163c4a11628f55a4df523b3ef908290a45050565b600060016117758461079d565b61177f919061250e565b6000838152600760205260409020549091508082146117d2576001600160a01b03841660009081526006602090815260408083208584528252808320548484528184208190558352600790915290208190555b5060009182526007602090815260408084208490556001600160a01b039094168352600681528383209183525290812055565b6008546000906118179060019061250e565b6000838152600960205260408120546008805493945090928490811061184d57634e487b7160e01b600052603260045260246000fd5b90600052602060002001549050806008838154811061187c57634e487b7160e01b600052603260045260246000fd5b60009182526020808320909101929092558281526009909152604080822084905585825281205560088054806118c257634e487b7160e01b600052603160045260246000fd5b6001900381819060005260206000200160009055905550505050565b60006118e98361079d565b6001600160a01b039093166000908152600660209081526040808320868452825280832085905593825260079052919091209190915550565b600061193561193084612498565b61247c565b90508281526020810184848401111561194d57600080fd5b611958848285612536565b509392505050565b803561044181612666565b80356104418161267a565b803561044181612682565b803561044181612688565b805161044181612688565b600082601f8301126119a857600080fd5b8135610b14848260208601611922565b6000602082840312156119ca57600080fd5b6000610b148484611960565b600080604083850312156119e957600080fd5b60006119f58585611960565b9250506020611a0685828601611960565b9150509250929050565b600080600060608486031215611a2557600080fd5b6000611a318686611960565b9350506020611a4286828701611960565b9250506040611a5386828701611976565b9150509250925092565b60008060008060808587031215611a7357600080fd5b6000611a7f8787611960565b9450506020611a9087828801611960565b9350506040611aa187828801611976565b925050606085013567ffffffffffffffff811115611abe57600080fd5b611aca87828801611997565b91505092959194509250565b60008060408385031215611ae957600080fd5b6000611af58585611960565b9250506020611a068582860161196b565b60008060408385031215611b1957600080fd5b6000611b258585611960565b9250506020611a0685828601611976565b600060208284031215611b4857600080fd5b6000610b148484611976565b60008060408385031215611b6757600080fd5b60006119f58585611976565b600060208284031215611b8557600080fd5b6000610b148484611981565b600060208284031215611ba357600080fd5b6000610b14848461198c565b611bb881612525565b82525050565b801515611bb8565b80611bb8565b6000611bd6825190565b808452602084019350611bed818560208601612542565b601f01601f19169290920192915050565b6000611c08825190565b611c16818560208601612542565b9290920192915050565b60008154611c2d81612585565b600182168015611c445760018114611c5557611c85565b60ff19831686528186019350611c85565b60008581526020902060005b83811015611c7d57815488820152600190910190602001611c61565b838801955050505b50505092915050565b60208082527f537472696e67733a20686578206c656e67746820696e73756666696369656e74910190815260005b5060200190565b602b81526000602082017f455243373231456e756d657261626c653a206f776e657220696e646578206f7581527f74206f6620626f756e6473000000000000000000000000000000000000000000602082015291505b5060400190565b603281526000602082017f4552433732313a207472616e7366657220746f206e6f6e20455243373231526581527f63656976657220696d706c656d656e746572000000000000000000000000000060208201529150611d19565b602581526000602082017f4552433732313a207472616e736665722066726f6d20696e636f72726563742081527f6f776e657200000000000000000000000000000000000000000000000000000060208201529150611d19565b601c81526000602082017f4552433732313a20746f6b656e20616c7265616479206d696e7465640000000081529150611cbc565b602481526000602082017f4552433732313a207472616e7366657220746f20746865207a65726f2061646481527f726573730000000000000000000000000000000000000000000000000000000060208201529150611d19565b601981526000602082017f4552433732313a20617070726f766520746f2063616c6c65720000000000000081529150611cbc565b602c81526000602082017f4552433732313a206f70657261746f7220717565727920666f72206e6f6e657881527f697374656e7420746f6b656e000000000000000000000000000000000000000060208201529150611d19565b603881526000602082017f4552433732313a20617070726f76652063616c6c6572206973206e6f74206f7781527f6e6572206e6f7220617070726f76656420666f7220616c6c000000000000000060208201529150611d19565b602a81526000602082017f4552433732313a2062616c616e636520717565727920666f7220746865207a6581527f726f20616464726573730000000000000000000000000000000000000000000060208201529150611d19565b602981526000602082017f4552433732313a206f776e657220717565727920666f72206e6f6e657869737481527f656e7420746f6b656e000000000000000000000000000000000000000000000060208201529150611d19565b60208082527f4552433732313a206d696e7420746f20746865207a65726f206164647265737391019081526000611cbc565b602c81526000602082017f4552433732313a20617070726f76656420717565727920666f72206e6f6e657881527f697374656e7420746f6b656e000000000000000000000000000000000000000060208201529150611d19565b602f81526000602082017f4552433732314d657461646174613a2055524920717565727920666f72206e6f81527f6e6578697374656e7420746f6b656e000000000000000000000000000000000060208201529150611d19565b602181526000602082017f4552433732313a20617070726f76616c20746f2063757272656e74206f776e6581527f720000000000000000000000000000000000000000000000000000000000000060208201529150611d19565b603181526000602082017f4552433732313a207472616e736665722063616c6c6572206973206e6f74206f81527f776e6572206e6f7220617070726f76656400000000000000000000000000000060208201529150611d19565b602c81526000602082017f455243373231456e756d657261626c653a20676c6f62616c20696e646578206f81527f7574206f6620626f756e6473000000000000000000000000000000000000000060208201529150611d19565b602f81526000602082017f416363657373436f6e74726f6c3a2063616e206f6e6c792072656e6f756e636581527f20726f6c657320666f722073656c66000000000000000000000000000000000060208201529150611d19565b60006122588286611bfe565b91506122648285611bfe565b91506122708284611c20565b95945050505050565b7f416363657373436f6e74726f6c3a206163636f756e7420000000000000000000815260170160006122ab8285611bfe565b7f206973206d697373696e6720726f6c652000000000000000000000000000000081526011019150610b148284611bfe565b602081016104418284611baf565b608081016122f98287611baf565b6123066020830186611baf565b6123136040830185611bc6565b81810360608301526123258184611bcc565b9695505050505050565b602081016104418284611bbe565b602081016104418284611bc6565b602080825281016109858184611bcc565b6020808252810161044181611c8e565b6020808252810161044181611cc3565b6020808252810161044181611d20565b6020808252810161044181611d7a565b6020808252810161044181611dd4565b6020808252810161044181611e08565b6020808252810161044181611e62565b6020808252810161044181611e96565b6020808252810161044181611ef0565b6020808252810161044181611f4a565b6020808252810161044181611fa4565b6020808252810161044181611ffe565b6020808252810161044181612030565b602080825281016104418161208a565b60208082528101610441816120e4565b602080825281016104418161213e565b6020808252810161044181612198565b60208082528101610441816121f2565b600061248760405190565b905061249382826125b2565b919050565b600067ffffffffffffffff8211156124b2576124b2612650565b601f19601f83011660200192915050565b600082198211156124d6576124d661260e565b500190565b6000826124ea576124ea612624565b500490565b60008160001904831182151516156125095761250961260e565b500290565b6000828210156125205761252061260e565b500390565b60006001600160a01b038216610441565b82818337506000910152565b60005b8381101561255d578181015183820152602001612545565b838111156108625750506000910152565b60008161257d5761257d61260e565b506000190190565b60028104600182168061259957607f821691505b602082108114156125ac576125ac61263a565b50919050565b601f19601f830116810181811067ffffffffffffffff821117156125d8576125d8612650565b6040525050565b60006000198214156125f3576125f361260e565b5060010190565b60008261260957612609612624565b500690565b634e487b7160e01b600052601160045260246000fd5b634e487b7160e01b600052601260045260246000fd5b634e487b7160e01b600052602260045260246000fd5b634e487b7160e01b600052604160045260246000fd5b61266f81612525565b811461070957600080fd5b80151561266f565b8061266f565b6001600160e01b0319811661266f56fe697066733a2f2f516d56625a686659484479747479506a48516f6b56485650596537426435526455726878486f453651696d7959732fa26469706673582212209b9dfb4ae73fdd7343f30806e62913661f845e05635e9d06a25a98660035535a64736f6c63430008040033",
  "linkReferences": {},
  "deployedLinkReferences": {}
}