{
  "_format": "hh-sol-artifact-1",
  "contractName": "MyToken",
  "sourceName": "contracts/mock/DummyNFT.sol",
  "abi": [
    {
      "inputs": [],
      "stateMutability": "nonpayable",
      "type": "constructor"
    },
    {
      "anonymous": false,
      "inputs": [
        {
          "indexed": true,
          "internalType": "address",
          "name": "owner",
          "type": "address"
        },
        {
          "indexed": true,
          "internalType": "address",
          "name": "approved",
          "type": "address"
        },
        {
          "indexed": true,
          "internalType": "uint256",
          "name": "tokenId",
          "type": "uint256"
        }
      ],
      "name": "Approval",
      "type": "event"
    },
    {
      "anonymous": false,
      "inputs": [
        {
          "indexed": true,
          "internalType": "address",
          "name": "owner",
          "type": "address"
        },
        {
          "indexed": true,
          "internalType": "address",
          "name": "operator",
          "type": "address"
        },
        {
          "indexed": false,
          "internalType": "bool",
          "name": "approved",
          "type": "bool"
        }
      ],
      "name": "ApprovalForAll",
      "type": "event"
    },
    {
      "anonymous": false,
      "inputs": [
        {
          "indexed": true,
          "internalType": "address",
          "name": "previousOwner",
          "type": "address"
        },
        {
          "indexed": true,
          "internalType": "address",
          "name": "newOwner",
          "type": "address"
        }
      ],
      "name": "OwnershipTransferred",
      "type": "event"
    },
    {
      "anonymous": false,
      "inputs": [
        {
          "indexed": true,
          "internalType": "address",
          "name": "from",
          "type": "address"
        },
        {
          "indexed": true,
          "internalType": "address",
          "name": "to",
          "type": "address"
        },
        {
          "indexed": true,
          "internalType": "uint256",
          "name": "tokenId",
          "type": "uint256"
        }
      ],
      "name": "Transfer",
      "type": "event"
    },
    {
      "inputs": [
        {
          "internalType": "address",
          "name": "to",
          "type": "address"
        },
        {
          "internalType": "uint256",
          "name": "tokenId",
          "type": "uint256"
        }
      ],
      "name": "approve",
      "outputs": [],
      "stateMutability": "nonpayable",
      "type": "function"
    },
    {
      "inputs": [
        {
          "internalType": "address",
          "name": "owner",
          "type": "address"
        }
      ],
      "name": "balanceOf",
      "outputs": [
        {
          "internalType": "uint256",
          "name": "",
          "type": "uint256"
        }
      ],
      "stateMutability": "view",
      "type": "function"
    },
    {
      "inputs": [],
      "name": "baseExtension",
      "outputs": [
        {
          "internalType": "string",
          "name": "",
          "type": "string"
        }
      ],
      "stateMutability": "view",
      "type": "function"
    },
    {
      "inputs": [
        {
          "internalType": "uint256",
          "name": "tokenId",
          "type": "uint256"
        }
      ],
      "name": "getApproved",
      "outputs": [
        {
          "internalType": "address",
          "name": "",
          "type": "address"
        }
      ],
      "stateMutability": "view",
      "type": "function"
    },
    {
      "inputs": [
        {
          "internalType": "address",
          "name": "owner",
          "type": "address"
        },
        {
          "internalType": "address",
          "name": "operator",
          "type": "address"
        }
      ],
      "name": "isApprovedForAll",
      "outputs": [
        {
          "internalType": "bool",
          "name": "",
          "type": "bool"
        }
      ],
      "stateMutability": "view",
      "type": "function"
    },
    {
      "inputs": [],
      "name": "name",
      "outputs": [
        {
          "internalType": "string",
          "name": "",
          "type": "string"
        }
      ],
      "stateMutability": "view",
      "type": "function"
    },
    {
      "inputs": [],
      "name": "owner",
      "outputs": [
        {
          "internalType": "address",
          "name": "",
          "type": "address"
        }
      ],
      "stateMutability": "view",
      "type": "function"
    },
    {
      "inputs": [
        {
          "internalType": "uint256",
          "name": "tokenId",
          "type": "uint256"
        }
      ],
      "name": "ownerOf",
      "outputs": [
        {
          "internalType": "address",
          "name": "",
          "type": "address"
        }
      ],
      "stateMutability": "view",
      "type": "function"
    },
    {
      "inputs": [],
      "name": "renounceOwnership",
      "outputs": [],
      "stateMutability": "nonpayable",
      "type": "function"
    },
    {
      "inputs": [
        {
          "internalType": "address",
          "name": "to",
          "type": "address"
        }
      ],
      "name": "safeMint",
      "outputs": [],
      "stateMutability": "nonpayable",
      "type": "function"
    },
    {
      "inputs": [
        {
          "internalType": "address",
          "name": "from",
          "type": "address"
        },
        {
          "internalType": "address",
          "name": "to",
          "type": "address"
        },
        {
          "internalType": "uint256",
          "name": "tokenId",
          "type": "uint256"
        }
      ],
      "name": "safeTransferFrom",
      "outputs": [],
      "stateMutability": "nonpayable",
      "type": "function"
    },
    {
      "inputs": [
        {
          "internalType": "address",
          "name": "from",
          "type": "address"
        },
        {
          "internalType": "address",
          "name": "to",
          "type": "address"
        },
        {
          "internalType": "uint256",
          "name": "tokenId",
          "type": "uint256"
        },
        {
          "internalType": "bytes",
          "name": "_data",
          "type": "bytes"
        }
      ],
      "name": "safeTransferFrom",
      "outputs": [],
      "stateMutability": "nonpayable",
      "type": "function"
    },
    {
      "inputs": [
        {
          "internalType": "address",
          "name": "operator",
          "type": "address"
        },
        {
          "internalType": "bool",
          "name": "approved",
          "type": "bool"
        }
      ],
      "name": "setApprovalForAll",
      "outputs": [],
      "stateMutability": "nonpayable",
      "type": "function"
    },
    {
      "inputs": [
        {
          "internalType": "bytes4",
          "name": "interfaceId",
          "type": "bytes4"
        }
      ],
      "name": "supportsInterface",
      "outputs": [
        {
          "internalType": "bool",
          "name": "",
          "type": "bool"
        }
      ],
      "stateMutability": "view",
      "type": "function"
    },
    {
      "inputs": [],
      "name": "symbol",
      "outputs": [
        {
          "internalType": "string",
          "name": "",
          "type": "string"
        }
      ],
      "stateMutability": "view",
      "type": "function"
    },
    {
      "inputs": [
        {
          "internalType": "uint256",
          "name": "tokenId",
          "type": "uint256"
        }
      ],
      "name": "tokenURI",
      "outputs": [
        {
          "internalType": "string",
          "name": "",
          "type": "string"
        }
      ],
      "stateMutability": "view",
      "type": "function"
    },
    {
      "inputs": [
        {
          "internalType": "address",
          "name": "from",
          "type": "address"
        },
        {
          "internalType": "address",
          "name": "to",
          "type": "address"
        },
        {
          "internalType": "uint256",
          "name": "tokenId",
          "type": "uint256"
        }
      ],
      "name": "transferFrom",
      "outputs": [],
      "stateMutability": "nonpayable",
      "type": "function"
    },
    {
      "inputs": [
        {
          "internalType": "address",
          "name": "newOwner",
          "type": "address"
        }
      ],
      "name": "transferOwnership",
      "outputs": [],
      "stateMutability": "nonpayable",
      "type": "function"
    }
  ],
  "bytecode": "0x60c06040526005608081905264173539b7b760d91b60a090815262000028916008919062000119565b503480156200003657600080fd5b50604080518082018252601081526f2837b63cb3b7b72a32b9ba2a37b5b2b760811b60208083019182528351808501909452600384526214151560ea1b9084015281519192916200008a9160009162000119565b508051620000a090600190602084019062000119565b505050620000bd620000b7620000c360201b60201c565b620000c7565b62000206565b3390565b600680546001600160a01b038381166001600160a01b0319831681179093556040519116919082907f8be0079c531659141344cd1fd0a4f28419497f9722a3daafe3b4186f6b6457e090600090a35050565b8280546200012790620001bf565b90600052602060002090601f0160209004810192826200014b576000855562000196565b82601f106200016657805160ff191683800117855562000196565b8280016001018555821562000196579182015b828111156200019657825182559160200191906001019062000179565b50620001a4929150620001a8565b5090565b5b80821115620001a45760008155600101620001a9565b600281046001821680620001d457607f821691505b60208210811415620001ea57620001ea620001f0565b50919050565b634e487b7160e01b600052602260045260246000fd5b611c8980620002166000396000f3fe608060405234801561001057600080fd5b50600436106101365760003560e01c8063715018a6116100b2578063b88d4fde11610081578063c87b56dd11610066578063c87b56dd14610269578063e985e9c51461027c578063f2fde38b146102b857600080fd5b8063b88d4fde1461024e578063c66828621461026157600080fd5b8063715018a61461021a5780638da5cb5b1461022257806395d89b4114610233578063a22cb4651461023b57600080fd5b806323b872dd1161010957806342842e0e116100ee57806342842e0e146101d45780636352211e146101e757806370a08231146101fa57600080fd5b806323b872dd146101ae57806340d097c3146101c157600080fd5b806301ffc9a71461013b57806306fdde0314610164578063081812fc14610179578063095ea7b314610199575b600080fd5b61014e610149366004611205565b6102cb565b60405161015b91906118c7565b60405180910390f35b61016c6103b0565b60405161015b91906118d5565b61018c610187366004611241565b610442565b60405161015b9190611875565b6101ac6101a73660046111d5565b61049b565b005b6101ac6101bc3660046110df565b61053f565b6101ac6101cf366004611087565b610570565b6101ac6101e23660046110df565b6105c3565b61018c6101f5366004611241565b6105de565b61020d610208366004611087565b610613565b60405161015b91906119e6565b6101ac610657565b6006546001600160a01b031661018c565b61016c61068d565b6101ac6102493660046111a5565b61069c565b6101ac61025c36600461112c565b6106a7565b61016c6106df565b61016c610277366004611241565b61076d565b61014e61028a3660046110a5565b6001600160a01b03918216600090815260056020908152604080832093909416825291909152205460ff1690565b6101ac6102c6366004611087565b610803565b60007fffffffff0000000000000000000000000000000000000000000000000000000082167f80ac58cd00000000000000000000000000000000000000000000000000000000148061035e57507fffffffff0000000000000000000000000000000000000000000000000000000082167f5b5e139f00000000000000000000000000000000000000000000000000000000145b806103aa57507f01ffc9a7000000000000000000000000000000000000000000000000000000007fffffffff000000000000000000000000000000000000000000000000000000008316145b92915050565b6060600080546103bf90611ac7565b80601f01602080910402602001604051908101604052809291908181526020018280546103eb90611ac7565b80156104385780601f1061040d57610100808354040283529160200191610438565b820191906000526020600020905b81548152906001019060200180831161041b57829003601f168201915b5050505050905090565b6000818152600260205260408120546001600160a01b031661047f5760405162461bcd60e51b815260040161047690611996565b60405180910390fd5b506000908152600460205260409020546001600160a01b031690565b60006104a6826105de565b9050806001600160a01b0316836001600160a01b031614156104da5760405162461bcd60e51b8152600401610476906119c6565b336001600160a01b038216148061051457506001600160a01b038116600090815260056020908152604080832033845290915290205460ff165b6105305760405162461bcd60e51b815260040161047690611956565b61053a838361085f565b505050565b61054933826108da565b6105655760405162461bcd60e51b8152600401610476906119d6565b61053a83838361098c565b6006546001600160a01b0316331461059a5760405162461bcd60e51b8152600401610476906119a6565b6105a8600780546001019055565b60006105b360075490565b90506105bf8282610abb565b5050565b61053a838383604051806020016040528060008152506106a7565b6000818152600260205260408120546001600160a01b0316806103aa5760405162461bcd60e51b815260040161047690611976565b60006001600160a01b03821661063b5760405162461bcd60e51b815260040161047690611966565b506001600160a01b031660009081526003602052604090205490565b6006546001600160a01b031633146106815760405162461bcd60e51b8152600401610476906119a6565b61068b6000610ad5565b565b6060600180546103bf90611ac7565b6105bf338383610b34565b6106b133836108da565b6106cd5760405162461bcd60e51b8152600401610476906119d6565b6106d984848484610bd7565b50505050565b600880546106ec90611ac7565b80601f016020809104026020016040519081016040528092919081815260200182805461071890611ac7565b80156107655780601f1061073a57610100808354040283529160200191610765565b820191906000526020600020905b81548152906001019060200180831161074857829003601f168201915b505050505081565b6000818152600260205260409020546060906001600160a01b03166107a45760405162461bcd60e51b8152600401610476906119b6565b60006107ae610c0a565b905060008151116107ce57604051806020016040528060008152506107fc565b806107d884610c2a565b60086040516020016107ec93929190611848565b6040516020818303038152906040525b9392505050565b6006546001600160a01b0316331461082d5760405162461bcd60e51b8152600401610476906119a6565b6001600160a01b0381166108535760405162461bcd60e51b8152600401610476906118f6565b61085c81610ad5565b50565b6000818152600460205260409020805473ffffffffffffffffffffffffffffffffffffffff19166001600160a01b03841690811790915581906108a1826105de565b6001600160a01b03167f8c5be1e5ebec7d5bd14f71427d1e84f3dd0314c0f7b2291e5b200ac8c7c3b92560405160405180910390a45050565b6000818152600260205260408120546001600160a01b031661090e5760405162461bcd60e51b815260040161047690611946565b6000610919836105de565b9050806001600160a01b0316846001600160a01b0316148061096057506001600160a01b0380821660009081526005602090815260408083209388168352929052205460ff165b806109845750836001600160a01b031661097984610442565b6001600160a01b0316145b949350505050565b826001600160a01b031661099f826105de565b6001600160a01b0316146109c55760405162461bcd60e51b815260040161047690611906565b6001600160a01b0382166109eb5760405162461bcd60e51b815260040161047690611926565b6109f660008261085f565b6001600160a01b0383166000908152600360205260408120805460019290610a1f908490611a67565b90915550506001600160a01b0382166000908152600360205260408120805460019290610a4d908490611a3b565b9091555050600081815260026020526040808220805473ffffffffffffffffffffffffffffffffffffffff19166001600160a01b0386811691821790925591518493918716917fddf252ad1be2c89b69c2b068fc378daa952ba7f163c4a11628f55a4df523b3ef91a4505050565b6105bf828260405180602001604052806000815250610d78565b600680546001600160a01b0383811673ffffffffffffffffffffffffffffffffffffffff19831681179093556040519116919082907f8be0079c531659141344cd1fd0a4f28419497f9722a3daafe3b4186f6b6457e090600090a35050565b816001600160a01b0316836001600160a01b03161415610b665760405162461bcd60e51b815260040161047690611936565b6001600160a01b0383811660008181526005602090815260408083209487168084529490915290819020805460ff1916851515179055517f17307eab39ab6107e8899845ad3d59bd9653f200f220920489ca2b5937696c3190610bca9085906118c7565b60405180910390a3505050565b610be284848461098c565b610bee84848484610dab565b6106d95760405162461bcd60e51b8152600401610476906118e6565b6060604051806080016040528060438152602001611c1160439139905090565b606081610c6a57505060408051808201909152600181527f3000000000000000000000000000000000000000000000000000000000000000602082015290565b8160005b8115610c945780610c7e81611b21565b9150610c8d9050600a83611a53565b9150610c6e565b60008167ffffffffffffffff811115610cbd57634e487b7160e01b600052604160045260246000fd5b6040519080825280601f01601f191660200182016040528015610ce7576020820181803683370190505b5090505b841561098457610cfc600183611a67565b9150610d09600a86611b5a565b610d14906030611a3b565b60f81b818381518110610d3757634e487b7160e01b600052603260045260246000fd5b60200101907effffffffffffffffffffffffffffffffffffffffffffffffffffffffffffff1916908160001a905350610d71600a86611a53565b9450610ceb565b610d828383610f02565b610d8f6000848484610dab565b61053a5760405162461bcd60e51b8152600401610476906118e6565b60006001600160a01b0384163b15610ef7576040517f150b7a020000000000000000000000000000000000000000000000000000000081526001600160a01b0385169063150b7a0290610e08903390899088908890600401611883565b602060405180830381600087803b158015610e2257600080fd5b505af1925050508015610e52575060408051601f3d908101601f19168201909252610e4f91810190611223565b60015b610eac573d808015610e80576040519150601f19603f3d011682016040523d82523d6000602084013e610e85565b606091505b508051610ea45760405162461bcd60e51b8152600401610476906118e6565b805181602001fd5b7fffffffff00000000000000000000000000000000000000000000000000000000167f150b7a0200000000000000000000000000000000000000000000000000000000149050610984565b506001949350505050565b6001600160a01b038216610f285760405162461bcd60e51b815260040161047690611986565b6000818152600260205260409020546001600160a01b031615610f5d5760405162461bcd60e51b815260040161047690611916565b6001600160a01b0382166000908152600360205260408120805460019290610f86908490611a3b565b9091555050600081815260026020526040808220805473ffffffffffffffffffffffffffffffffffffffff19166001600160a01b03861690811790915590518392907fddf252ad1be2c89b69c2b068fc378daa952ba7f163c4a11628f55a4df523b3ef908290a45050565b6000611004610fff84611a10565b6119f4565b90508281526020810184848401111561101c57600080fd5b611027848285611a8f565b509392505050565b80356103aa81611bc6565b80356103aa81611bda565b80356103aa81611be2565b80516103aa81611be2565b600082601f83011261106c57600080fd5b8135610984848260208601610ff1565b80356103aa81611c0a565b60006020828403121561109957600080fd5b6000610984848461102f565b600080604083850312156110b857600080fd5b60006110c4858561102f565b92505060206110d58582860161102f565b9150509250929050565b6000806000606084860312156110f457600080fd5b6000611100868661102f565b93505060206111118682870161102f565b92505060406111228682870161107c565b9150509250925092565b6000806000806080858703121561114257600080fd5b600061114e878761102f565b945050602061115f8782880161102f565b93505060406111708782880161107c565b925050606085013567ffffffffffffffff81111561118d57600080fd5b6111998782880161105b565b91505092959194509250565b600080604083850312156111b857600080fd5b60006111c4858561102f565b92505060206110d58582860161103a565b600080604083850312156111e857600080fd5b60006111f4858561102f565b92505060206110d58582860161107c565b60006020828403121561121757600080fd5b60006109848484611045565b60006020828403121561123557600080fd5b60006109848484611050565b60006020828403121561125357600080fd5b6000610984848461107c565b61126881611a7e565b82525050565b801515611268565b6000611280825190565b808452602084019350611297818560208601611a9b565b601f01601f19169290920192915050565b60006112b2825190565b6112c0818560208601611a9b565b9290920192915050565b600081546112d781611ac7565b6001821680156112ee57600181146112ff5761132f565b60ff1983168652818601935061132f565b60008581526020902060005b838110156113275781548882015260019091019060200161130b565b838801955050505b50505092915050565b603281526000602082017f4552433732313a207472616e7366657220746f206e6f6e20455243373231526581527f63656976657220696d706c656d656e7465720000000000000000000000000000602082015291505b5060400190565b602681526000602082017f4f776e61626c653a206e6577206f776e657220697320746865207a65726f206181527f64647265737300000000000000000000000000000000000000000000000000006020820152915061138e565b602581526000602082017f4552433732313a207472616e736665722066726f6d20696e636f72726563742081527f6f776e65720000000000000000000000000000000000000000000000000000006020820152915061138e565b601c81526000602082017f4552433732313a20746f6b656e20616c7265616479206d696e74656400000000815291505b5060200190565b602481526000602082017f4552433732313a207472616e7366657220746f20746865207a65726f2061646481527f72657373000000000000000000000000000000000000000000000000000000006020820152915061138e565b601981526000602082017f4552433732313a20617070726f766520746f2063616c6c65720000000000000081529150611479565b602c81526000602082017f4552433732313a206f70657261746f7220717565727920666f72206e6f6e657881527f697374656e7420746f6b656e00000000000000000000000000000000000000006020820152915061138e565b603881526000602082017f4552433732313a20617070726f76652063616c6c6572206973206e6f74206f7781527f6e6572206e6f7220617070726f76656420666f7220616c6c00000000000000006020820152915061138e565b602a81526000602082017f4552433732313a2062616c616e636520717565727920666f7220746865207a6581527f726f2061646472657373000000000000000000000000000000000000000000006020820152915061138e565b602981526000602082017f4552433732313a206f776e657220717565727920666f72206e6f6e657869737481527f656e7420746f6b656e00000000000000000000000000000000000000000000006020820152915061138e565b60208082527f4552433732313a206d696e7420746f20746865207a65726f206164647265737391019081526000611479565b602c81526000602082017f4552433732313a20617070726f76656420717565727920666f72206e6f6e657881527f697374656e7420746f6b656e00000000000000000000000000000000000000006020820152915061138e565b60208082527f4f776e61626c653a2063616c6c6572206973206e6f7420746865206f776e657291019081526000611479565b602f81526000602082017f4552433732314d657461646174613a2055524920717565727920666f72206e6f81527f6e6578697374656e7420746f6b656e00000000000000000000000000000000006020820152915061138e565b602181526000602082017f4552433732313a20617070726f76616c20746f2063757272656e74206f776e6581527f72000000000000000000000000000000000000000000000000000000000000006020820152915061138e565b603181526000602082017f4552433732313a207472616e736665722063616c6c6572206973206e6f74206f81527f776e6572206e6f7220617070726f7665640000000000000000000000000000006020820152915061138e565b80611268565b600061185482866112a8565b915061186082856112a8565b915061186c82846112ca565b95945050505050565b602081016103aa828461125f565b60808101611891828761125f565b61189e602083018661125f565b6118ab6040830185611842565b81810360608301526118bd8184611276565b9695505050505050565b602081016103aa828461126e565b602080825281016107fc8184611276565b602080825281016103aa81611338565b602080825281016103aa81611395565b602080825281016103aa816113ef565b602080825281016103aa81611449565b602080825281016103aa81611480565b602080825281016103aa816114da565b602080825281016103aa8161150e565b602080825281016103aa81611568565b602080825281016103aa816115c2565b602080825281016103aa8161161c565b602080825281016103aa81611676565b602080825281016103aa816116a8565b602080825281016103aa81611702565b602080825281016103aa81611734565b602080825281016103aa8161178e565b602080825281016103aa816117e8565b602081016103aa8284611842565b60006119ff60405190565b9050611a0b8282611af4565b919050565b600067ffffffffffffffff821115611a2a57611a2a611bb0565b601f19601f83011660200192915050565b60008219821115611a4e57611a4e611b6e565b500190565b600082611a6257611a62611b84565b500490565b600082821015611a7957611a79611b6e565b500390565b60006001600160a01b0382166103aa565b82818337506000910152565b60005b83811015611ab6578181015183820152602001611a9e565b838111156106d95750506000910152565b600281046001821680611adb57607f821691505b60208210811415611aee57611aee611b9a565b50919050565b601f19601f830116810181811067ffffffffffffffff82111715611b1a57611b1a611bb0565b6040525050565b60007fffffffffffffffffffffffffffffffffffffffffffffffffffffffffffffffff821415611b5357611b53611b6e565b5060010190565b600082611b6957611b69611b84565b500690565b634e487b7160e01b600052601160045260246000fd5b634e487b7160e01b600052601260045260246000fd5b634e487b7160e01b600052602260045260246000fd5b634e487b7160e01b600052604160045260246000fd5b611bcf81611a7e565b811461085c57600080fd5b801515611bcf565b7fffffffff000000000000000000000000000000000000000000000000000000008116611bcf565b80611bcf56fe697066733a2f2f6261667962656962756c79757734716d70746a337a346b756a6a6832773536373778783365697a7779647a3279616f336e6e7274376668736e6c712fa264697066735822122035ff3c505a7a00c5d1e30a6b55ad12a5631e12d796d55d7f5fadcf1ed8d174a364736f6c63430008040033",
  "linkReferences": {},
  "deployedLinkReferences": {}
}